{
  "address": "0xbd82Cd2f7C2B8710A879580399CFbfF61c5020B9",
  "abi": [
    {
      "inputs": [
        {
          "internalType": "uint256",
          "name": "_claimPeriodEnds",
          "type": "uint256"
        },
        {
          "internalType": "address",
          "name": "_codeToken",
          "type": "address"
        },
        {
          "internalType": "bytes32",
          "name": "_merkleRoot",
          "type": "bytes32"
        }
      ],
      "stateMutability": "nonpayable",
      "type": "constructor"
    },
    {
      "inputs": [],
      "name": "Address0Error",
      "type": "error"
    },
    {
      "inputs": [],
      "name": "AlreadyClaimed",
      "type": "error"
    },
    {
      "inputs": [],
      "name": "ClaimEnded",
      "type": "error"
    },
    {
      "inputs": [],
      "name": "ClaimNotEnded",
      "type": "error"
    },
    {
      "inputs": [],
      "name": "InitError",
      "type": "error"
    },
    {
      "inputs": [],
      "name": "InvalidProof",
      "type": "error"
    },
    {
      "anonymous": false,
      "inputs": [
        {
          "indexed": true,
          "internalType": "address",
          "name": "_claimant",
          "type": "address"
        },
        {
          "indexed": false,
          "internalType": "uint256",
          "name": "_amount",
          "type": "uint256"
        }
      ],
      "name": "Claim",
      "type": "event"
    },
    {
      "anonymous": false,
      "inputs": [
        {
          "indexed": true,
          "internalType": "address",
          "name": "previousOwner",
          "type": "address"
        },
        {
          "indexed": true,
          "internalType": "address",
          "name": "newOwner",
          "type": "address"
        }
      ],
      "name": "OwnershipTransferred",
      "type": "event"
    },
    {
      "anonymous": false,
      "inputs": [
        {
          "indexed": false,
          "internalType": "address",
          "name": "account",
          "type": "address"
        }
      ],
      "name": "Paused",
      "type": "event"
    },
    {
      "anonymous": false,
      "inputs": [
        {
          "indexed": false,
          "internalType": "address",
          "name": "_token",
          "type": "address"
        }
      ],
      "name": "Sweep20",
      "type": "event"
    },
    {
      "anonymous": false,
      "inputs": [
        {
          "indexed": false,
          "internalType": "address",
          "name": "_token",
          "type": "address"
        },
        {
          "indexed": false,
          "internalType": "uint256",
          "name": "_tokenID",
          "type": "uint256"
        }
      ],
      "name": "Sweep721",
      "type": "event"
    },
    {
      "anonymous": false,
      "inputs": [
        {
          "indexed": false,
          "internalType": "address",
          "name": "account",
          "type": "address"
        }
      ],
      "name": "Unpaused",
      "type": "event"
    },
    {
      "inputs": [],
      "name": "claimPeriodEnds",
      "outputs": [
        {
          "internalType": "uint256",
          "name": "",
          "type": "uint256"
        }
      ],
      "stateMutability": "view",
      "type": "function"
    },
    {
      "inputs": [
        {
          "internalType": "uint256",
          "name": "_amount",
          "type": "uint256"
        },
        {
          "internalType": "bytes32[]",
          "name": "_merkleProof",
          "type": "bytes32[]"
        }
      ],
      "name": "claimTokens",
      "outputs": [],
      "stateMutability": "nonpayable",
      "type": "function"
    },
    {
      "inputs": [],
      "name": "codeToken",
      "outputs": [
        {
          "internalType": "contract ICODE",
          "name": "",
          "type": "address"
        }
      ],
      "stateMutability": "view",
      "type": "function"
    },
    {
      "inputs": [
        {
          "internalType": "uint256",
          "name": "_index",
          "type": "uint256"
        }
      ],
      "name": "isClaimed",
      "outputs": [
        {
          "internalType": "bool",
          "name": "",
          "type": "bool"
        }
      ],
      "stateMutability": "view",
      "type": "function"
    },
    {
      "inputs": [],
      "name": "merkleRoot",
      "outputs": [
        {
          "internalType": "bytes32",
          "name": "",
          "type": "bytes32"
        }
      ],
      "stateMutability": "view",
      "type": "function"
    },
    {
      "inputs": [],
      "name": "owner",
      "outputs": [
        {
          "internalType": "address",
          "name": "",
          "type": "address"
        }
      ],
      "stateMutability": "view",
      "type": "function"
    },
    {
      "inputs": [],
      "name": "pause",
      "outputs": [],
      "stateMutability": "nonpayable",
      "type": "function"
    },
    {
      "inputs": [],
      "name": "paused",
      "outputs": [
        {
          "internalType": "bool",
          "name": "",
          "type": "bool"
        }
      ],
      "stateMutability": "view",
      "type": "function"
    },
    {
      "inputs": [],
      "name": "renounceOwnership",
      "outputs": [],
      "stateMutability": "nonpayable",
      "type": "function"
    },
    {
      "inputs": [
        {
          "internalType": "address",
          "name": "_tokenAddr",
          "type": "address"
        }
      ],
      "name": "sweep20",
      "outputs": [],
      "stateMutability": "nonpayable",
      "type": "function"
    },
    {
      "inputs": [
        {
          "internalType": "address",
          "name": "_tokenAddr",
          "type": "address"
        },
        {
          "internalType": "uint256",
          "name": "_tokenID",
          "type": "uint256"
        }
      ],
      "name": "sweep721",
      "outputs": [],
      "stateMutability": "nonpayable",
      "type": "function"
    },
    {
      "inputs": [
        {
          "internalType": "address",
          "name": "newOwner",
          "type": "address"
        }
      ],
      "name": "transferOwnership",
      "outputs": [],
      "stateMutability": "nonpayable",
      "type": "function"
    },
    {
      "inputs": [],
      "name": "unpause",
      "outputs": [],
      "stateMutability": "nonpayable",
      "type": "function"
    },
    {
      "inputs": [
        {
          "internalType": "bytes32[]",
          "name": "_proof",
          "type": "bytes32[]"
        },
        {
          "internalType": "bytes32",
          "name": "_leaf",
          "type": "bytes32"
        }
      ],
      "name": "verify",
      "outputs": [
        {
          "internalType": "bool",
          "name": "",
          "type": "bool"
        },
        {
          "internalType": "uint256",
          "name": "",
          "type": "uint256"
        }
      ],
      "stateMutability": "view",
      "type": "function"
    }
  ],
  "transactionHash": "0xcdae43a74369d8d335ea1848c529eaad72fc19b947eab871da7b25de9ae8d9ee",
  "args": [
    1676724820,
    "0xb24cd494faE4C180A89975F1328Eab2a7D5d8f11",
    "0xfaa17e7be3479cc3ebf495727ad8044bc41c58626c575ce410d2f437fe0440fc"
  ],
  "solcInputHash": "d5da554d04da37583d155ecc667e1418",
  "bytecode": "0x60a060405234801561001057600080fd5b50604051620012c2380380620012c283398101604081905261003191610194565b61003a33610095565b6000805460ff60a01b191690556001600160a01b03821661006e576040516324560b2960e11b815260040160405180910390fd5b60038390556001600160a01b038216608052600281905561008d6100e5565b5050506101da565b600080546001600160a01b038381166001600160a01b0319831681178455604051919092169283917f8be0079c531659141344cd1fd0a4f28419497f9722a3daafe3b4186f6b6457e09190a35050565b6100f8600054600160a01b900460ff1690565b1561013c5760405162461bcd60e51b815260206004820152601060248201526f14185d5cd8589b194e881c185d5cd95960821b604482015260640160405180910390fd5b6000805460ff60a01b1916600160a01b1790557f62e78cea01bee320cd4e420270b5ea74000d11b0c9f74754ebdbfc544b05a2586101773390565b6040516001600160a01b03909116815260200160405180910390a1565b6000806000606084860312156101a957600080fd5b835160208501519093506001600160a01b03811681146101c857600080fd5b80925050604084015190509250925092565b6080516110b76200020b6000396000818161018901528181610721015281816107b801526108a801526110b76000f3fe608060405234801561001057600080fd5b50600436106100ea5760003560e01c80638da5cb5b1161008c5780639a114cb2116100665780639a114cb2146101d55780639e34070f146101e8578063d85f9a8b14610219578063f2fde38b1461022c57600080fd5b80638da5cb5b1461015f578063904d202214610184578063972a2a62146101ab57600080fd5b806366deac47116100c857806366deac4714610133578063715018a61461013c57806376cc4854146101445780638456cb591461015757600080fd5b80632eb4a7ab146100ef5780633f4ba83a1461010b5780635c975abb14610115575b600080fd5b6100f860025481565b6040519081526020015b60405180910390f35b61011361023f565b005b600054600160a01b900460ff165b6040519015158152602001610102565b6100f860035481565b6101136102a8565b610113610152366004610e4d565b61030c565b610113610450565b6000546001600160a01b03165b6040516001600160a01b039091168152602001610102565b61016c7f000000000000000000000000000000000000000000000000000000000000000081565b6101be6101b9366004610ec3565b6104b2565b604080519215158352602083019190915201610102565b6101136101e3366004610f0f565b610502565b6101236101f6366004610f5b565b600881901c60009081526001602081905260409091205460ff9092161b16151590565b610113610227366004610f74565b610847565b61011361023a366004610f74565b610aa8565b6000546001600160a01b0316331461029e5760405162461bcd60e51b815260206004820181905260248201527f4f776e61626c653a2063616c6c6572206973206e6f7420746865206f776e657260448201526064015b60405180910390fd5b6102a6610b8a565b565b6000546001600160a01b031633146103025760405162461bcd60e51b815260206004820181905260248201527f4f776e61626c653a2063616c6c6572206973206e6f7420746865206f776e65726044820152606401610295565b6102a66000610c4b565b6000546001600160a01b031633146103665760405162461bcd60e51b815260206004820181905260248201527f4f776e61626c653a2063616c6c6572206973206e6f7420746865206f776e65726044820152606401610295565b816001600160a01b0381166323b872dd306103896000546001600160a01b031690565b6040517fffffffff0000000000000000000000000000000000000000000000000000000060e085901b1681526001600160a01b0392831660048201529116602482015260448101859052606401600060405180830381600087803b1580156103f057600080fd5b505af1158015610404573d6000803e3d6000fd5b5050604080516001600160a01b0387168152602081018690527f82b0210374125cdd64dfcfea448d1e398cd4ebbd12b15edd564efe6f2750ce27935001905060405180910390a1505050565b6000546001600160a01b031633146104aa5760405162461bcd60e51b815260206004820181905260248201527f4f776e61626c653a2063616c6c6572206973206e6f7420746865206f776e65726044820152606401610295565b6102a6610cb3565b6000806104f6858580806020026020016040519081016040528093929190818152602001838360200280828437600092019190915250506002549150869050610d63565b91509150935093915050565b600054600160a01b900460ff161561055c5760405162461bcd60e51b815260206004820152601060248201527f5061757361626c653a20706175736564000000000000000000000000000000006044820152606401610295565b6040517fffffffffffffffffffffffffffffffffffffffff0000000000000000000000003360601b166020820152603481018490526000906054016040516020818303038152906040528051906020012090506000806105bd8585856104b2565b91509150816105f8576040517f09bde33900000000000000000000000000000000000000000000000000000000815260040160405180910390fd5b61061f81600881901c60009081526001602081905260409091205460ff9092161b16151590565b15610656576040517f646cf55800000000000000000000000000000000000000000000000000000000815260040160405180910390fd5b600354421115610692576040517f4f184b7e00000000000000000000000000000000000000000000000000000000815260040160405180910390fd5b600881901c6000908152600160208190526040909120805460ff84169290921b909117905560405186815233907f47cee97cb7acd717b3c0aa1435d004cd5b3c8c57d70dbceb4e4458bbd60e39d49060200160405180910390a26040517fd371ddd5000000000000000000000000000000000000000000000000000000008152336004820181905260248201527f00000000000000000000000000000000000000000000000000000000000000006001600160a01b03169063d371ddd590604401600060405180830381600087803b15801561076d57600080fd5b505af1158015610781573d6000803e3d6000fd5b50506040517fa9059cbb000000000000000000000000000000000000000000000000000000008152336004820152602481018990527f00000000000000000000000000000000000000000000000000000000000000006001600160a01b0316925063a9059cbb9150604401602060405180830381600087803b15801561080657600080fd5b505af115801561081a573d6000803e3d6000fd5b505050506040513d601f19601f8201168201806040525081019061083e9190610f96565b50505050505050565b6000546001600160a01b031633146108a15760405162461bcd60e51b815260206004820181905260248201527f4f776e61626c653a2063616c6c6572206973206e6f7420746865206f776e65726044820152606401610295565b60008190507f00000000000000000000000000000000000000000000000000000000000000006001600160a01b0316826001600160a01b03161480156108e957506003544211155b15610920576040517f72c38d2900000000000000000000000000000000000000000000000000000000815260040160405180910390fd5b806001600160a01b031663a9059cbb6109416000546001600160a01b031690565b6040517f70a082310000000000000000000000000000000000000000000000000000000081523060048201526001600160a01b038516906370a082319060240160206040518083038186803b15801561099957600080fd5b505afa1580156109ad573d6000803e3d6000fd5b505050506040513d601f19601f820116820180604052508101906109d19190610fb8565b6040517fffffffff0000000000000000000000000000000000000000000000000000000060e085901b1681526001600160a01b0390921660048301526024820152604401602060405180830381600087803b158015610a2f57600080fd5b505af1158015610a43573d6000803e3d6000fd5b505050506040513d601f19601f82011682018060405250810190610a679190610f96565b506040516001600160a01b03831681527f510a40bef53ebad78064fc0e32d3ceface15a9e2d325d8fa92d3430fa976b01b9060200160405180910390a15050565b6000546001600160a01b03163314610b025760405162461bcd60e51b815260206004820181905260248201527f4f776e61626c653a2063616c6c6572206973206e6f7420746865206f776e65726044820152606401610295565b6001600160a01b038116610b7e5760405162461bcd60e51b815260206004820152602660248201527f4f776e61626c653a206e6577206f776e657220697320746865207a65726f206160448201527f64647265737300000000000000000000000000000000000000000000000000006064820152608401610295565b610b8781610c4b565b50565b600054600160a01b900460ff16610be35760405162461bcd60e51b815260206004820152601460248201527f5061757361626c653a206e6f74207061757365640000000000000000000000006044820152606401610295565b600080547fffffffffffffffffffffff00ffffffffffffffffffffffffffffffffffffffff1690557f5db9ee0a495bf2e6ff9c91a7834c1ba4fdd244a5e8aa4e537bd38aeae4b073aa335b6040516001600160a01b03909116815260200160405180910390a1565b600080546001600160a01b038381167fffffffffffffffffffffffff0000000000000000000000000000000000000000831681178455604051919092169283917f8be0079c531659141344cd1fd0a4f28419497f9722a3daafe3b4186f6b6457e09190a35050565b600054600160a01b900460ff1615610d0d5760405162461bcd60e51b815260206004820152601060248201527f5061757361626c653a20706175736564000000000000000000000000000000006044820152606401610295565b600080547fffffffffffffffffffffff00ffffffffffffffffffffffffffffffffffffffff16600160a01b1790557f62e78cea01bee320cd4e420270b5ea74000d11b0c9f74754ebdbfc544b05a258610c2e3390565b6000808281805b8751811015610e2557610d7e600283611000565b91506000888281518110610d9457610d9461101f565b60200260200101519050808411610dd6576040805160208101869052908101829052606001604051602081830303815290604052805190602001209350610e12565b6040805160208101839052908101859052606001604051602081830303815290604052805190602001209350600183610e0f919061104e565b92505b5080610e1d81611066565b915050610d6a565b50941495939450505050565b80356001600160a01b0381168114610e4857600080fd5b919050565b60008060408385031215610e6057600080fd5b610e6983610e31565b946020939093013593505050565b60008083601f840112610e8957600080fd5b50813567ffffffffffffffff811115610ea157600080fd5b6020830191508360208260051b8501011115610ebc57600080fd5b9250929050565b600080600060408486031215610ed857600080fd5b833567ffffffffffffffff811115610eef57600080fd5b610efb86828701610e77565b909790965060209590950135949350505050565b600080600060408486031215610f2457600080fd5b83359250602084013567ffffffffffffffff811115610f4257600080fd5b610f4e86828701610e77565b9497909650939450505050565b600060208284031215610f6d57600080fd5b5035919050565b600060208284031215610f8657600080fd5b610f8f82610e31565b9392505050565b600060208284031215610fa857600080fd5b81518015158114610f8f57600080fd5b600060208284031215610fca57600080fd5b5051919050565b7f4e487b7100000000000000000000000000000000000000000000000000000000600052601160045260246000fd5b600081600019048311821515161561101a5761101a610fd1565b500290565b7f4e487b7100000000000000000000000000000000000000000000000000000000600052603260045260246000fd5b6000821982111561106157611061610fd1565b500190565b600060001982141561107a5761107a610fd1565b506001019056fea2646970667358221220bbf6b7e291e242c56ea85102bbab69610b486fd72993349276e2171d23ef8a4c64736f6c63430008090033",
  "devdoc": {
    "kind": "dev",
    "methods": {
      "owner()": {
        "details": "Returns the address of the current owner."
      },
      "paused()": {
        "details": "Returns true if the contract is paused, and false otherwise."
      },
      "renounceOwnership()": {
        "details": "Leaves the contract without owner. It will not be possible to call `onlyOwner` functions anymore. Can only be called by the current owner. NOTE: Renouncing ownership will leave the contract without an owner, thereby removing any functionality that is only available to the owner."
      },
      "transferOwnership(address)": {
        "details": "Transfers ownership of the contract to a new account (`newOwner`). Can only be called by the current owner."
      }
    },
    "version": 1
  },
  "userdoc": {
    "kind": "user",
    "methods": {},
    "version": 1
  },
  "storageLayout": {
    "storage": [
      {
        "astId": 387,
        "contract": "src/ClaimCODE.sol:ClaimCODE",
        "label": "_owner",
        "offset": 0,
        "slot": "0",
        "type": "t_address"
      },
      {
        "astId": 501,
        "contract": "src/ClaimCODE.sol:ClaimCODE",
        "label": "_paused",
        "offset": 20,
        "slot": "0",
        "type": "t_bool"
      },
      {
        "astId": 5134,
        "contract": "src/ClaimCODE.sol:ClaimCODE",
        "label": "claimed",
        "offset": 0,
        "slot": "1",
        "type": "t_struct(BitMap)4740_storage"
      },
      {
        "astId": 5136,
        "contract": "src/ClaimCODE.sol:ClaimCODE",
        "label": "merkleRoot",
        "offset": 0,
        "slot": "2",
        "type": "t_bytes32"
      },
      {
        "astId": 5138,
        "contract": "src/ClaimCODE.sol:ClaimCODE",
        "label": "claimPeriodEnds",
        "offset": 0,
        "slot": "3",
        "type": "t_uint256"
      }
    ],
    "types": {
      "t_address": {
        "encoding": "inplace",
        "label": "address",
        "numberOfBytes": "20"
      },
      "t_bool": {
        "encoding": "inplace",
        "label": "bool",
        "numberOfBytes": "1"
      },
      "t_bytes32": {
        "encoding": "inplace",
        "label": "bytes32",
        "numberOfBytes": "32"
      },
      "t_mapping(t_uint256,t_uint256)": {
        "encoding": "mapping",
        "key": "t_uint256",
        "label": "mapping(uint256 => uint256)",
        "numberOfBytes": "32",
        "value": "t_uint256"
      },
      "t_struct(BitMap)4740_storage": {
        "encoding": "inplace",
        "label": "struct BitMaps.BitMap",
        "members": [
          {
            "astId": 4739,
            "contract": "src/ClaimCODE.sol:ClaimCODE",
            "label": "_data",
            "offset": 0,
            "slot": "0",
            "type": "t_mapping(t_uint256,t_uint256)"
          }
        ],
        "numberOfBytes": "32"
      },
      "t_uint256": {
        "encoding": "inplace",
        "label": "uint256",
        "numberOfBytes": "32"
      }
    }
  }
}